:10091D002057454C434F4D450056495349544F526E
:10092D0020434F554E54455200434F554E543A00B7
:10080000E4F5087F3812095A12093D7F0112095A8E
:1008100012093D7F1012095A12093D7F0C12095A24
:1008200012093D7BFF7A09791D7D081208A17FC05E
:1008300012095A12093D7BFF7A0979267D0F1208A9
:10084000A112093D7F0112095A12093D3096B120CB
:1008500090227F8012095A12093D7BFF7A0979366E
:100860007D061208A17F8712095A12093D0508AFBB
:10087000081208FB20911EE508601A7FC612095A6B
:1008800012093D150812093D7F8712095A12093DC8
:10089000AF081208FBE5087004C29580AFD29580BE
:0108A000ABAC
:0E095A008FA0C292C293D29412093DC2942281
:0E0968008FA0D292C293D29412093DC2942263
:0808A1008B098A0A890B8D0CFA
:1008A900E4F50DE50DC3950C501AAB09AA0AA90B7D
:1008B900850D827583001208CEFF12096812093D61
:0408C900050D80DFBA
:0108CD002208
:0208FB00AE0746
:1008FD00EE75F00A84FFEE75F00A8485F009743008
:10090D002FFF74302509F509120968AF090209682E
:10093D00E4FFFE0FBF00010EBE13F8BF88F5E4FF04
:0C094D00FE0FBF00010EBE03F8BFE8F56E
:01095900227B
:030000000209767C
:0C097600787FE4F6D8FD75810D020800C2
:1008CE00BB010CE58229F582E5833AF583E02250DF
:1008DE0006E92582F8E622BBFE06E92582F8E22229
:0D08EE00E58229F582E5833AF583E4932243
:00000001FF
